{
  "transactions": [
    {
      "hash": "0x10c491632ee21a68232fd1c5c09d4832cf405024270c11c74be2efa0bd32f334",
      "transactionType": "CALL",
      "contractName": null,
      "contractAddress": "0x9bf90104dc52b645038780f5e4410ec036dd273d",
      "function": "addExecutor(address)",
      "arguments": [
        "0x7682df12Dc31d5Dc6A1057958887d1Ad6F4Eed19"
      ],
      "transaction": {
        "from": "0x24c1fd279b9b2631614d5cd5f9cc55dfec4422c2",
        "to": "0x9bf90104dc52b645038780f5e4410ec036dd273d",
        "gas": "0x13631",
        "value": "0x0",
        "input": "0x1f5a0bbe0000000000000000000000007682df12dc31d5dc6a1057958887d1ad6f4eed19",
        "nonce": "0x52f8",
        "chainId": "0x1b580"
      },
      "additionalContracts": [],
      "isFixedGasLimit": false
    }
  ],
  "receipts": [
    {
      "status": "0x1",
      "cumulativeGasUsed": "0xf951",
      "logs": [
        {
          "address": "0x9bf90104dc52b645038780f5e4410ec036dd273d",
          "topics": [
            "0x2f8788117e7eff1d82e926ec794901d17c78024a50270940304540a733656f0d",
            "0xd8aa0f3194971a2a116679f7c2090f6939c8d4e01a2a8d7e41d55e5351469e63",
            "0x0000000000000000000000007682df12dc31d5dc6a1057958887d1ad6f4eed19",
            "0x00000000000000000000000024c1fd279b9b2631614d5cd5f9cc55dfec4422c2"
          ],
          "data": "0x",
          "blockHash": "0x34c3beeef8664ed4e2877f480831f0f50a122689e704e9051e37c3b02423d6b1",
          "blockNumber": "0x5436",
          "transactionHash": "0x10c491632ee21a68232fd1c5c09d4832cf405024270c11c74be2efa0bd32f334",
          "transactionIndex": "0x1",
          "logIndex": "0x0",
          "removed": false
        }
      ],
      "logsBloom": "0x00000004001000000000000000000000000000000000000000000000000000000000000000000000080000000001000000000000000000000200000010000000000000000000000000000000000000000000000000000000000000000000000000000000400000000000000000000000000000000000000004000008000000000000000000000000000000000000000000000000000000000000000000000000000100000000000000000000000000000000000000000020001000000000000000000000000000000000000000000000000000000000000100000000000000000000000000001000000400000000000000000000000000000000000000000000",
      "type": "0x2",
      "transactionHash": "0x10c491632ee21a68232fd1c5c09d4832cf405024270c11c74be2efa0bd32f334",
      "transactionIndex": "0x1",
      "blockHash": "0x34c3beeef8664ed4e2877f480831f0f50a122689e704e9051e37c3b02423d6b1",
      "blockNumber": "0x5436",
      "gasUsed": "0xf951",
      "effectiveGasPrice": "0x5f5e100",
      "from": "0x24c1fd279b9b2631614d5cd5f9cc55dfec4422c2",
      "to": "0x9bf90104dc52b645038780f5e4410ec036dd273d",
      "contractAddress": null,
      "gasUsedForL1": "0x2538",
      "l1BlockNumber": "0x794926"
    }
  ],
  "libraries": [],
  "pending": [],
  "returns": {},
  "timestamp": 1742549977,
  "chain": 112000,
  "commit": "7768dd4"
}