{
  "transactions": [
    {
      "hash": "0xd2b1ccc58e6b88275dcfafc171380732b7dc8fbbb1b7cf60c41313e2aecd6df4",
      "transactionType": "CALL",
      "contractName": null,
      "contractAddress": "0x91e2e6958fdcb3687df924d71873ec3dbda952bb",
      "function": "addExecutor(address)",
      "arguments": [
        "0x7682df12Dc31d5Dc6A1057958887d1Ad6F4Eed19"
      ],
      "transaction": {
        "from": "0x24c1fd279b9b2631614d5cd5f9cc55dfec4422c2",
        "to": "0x91e2e6958fdcb3687df924d71873ec3dbda952bb",
        "gas": "0x13631",
        "value": "0x0",
        "input": "0x1f5a0bbe0000000000000000000000007682df12dc31d5dc6a1057958887d1ad6f4eed19",
        "nonce": "0xbc0",
        "chainId": "0x1b580"
      },
      "additionalContracts": [],
      "isFixedGasLimit": false
    }
  ],
  "receipts": [
    {
      "status": "0x1",
      "cumulativeGasUsed": "0x10505",
      "logs": [
        {
          "address": "0x91e2e6958fdcb3687df924d71873ec3dbda952bb",
          "topics": [
            "0x2f8788117e7eff1d82e926ec794901d17c78024a50270940304540a733656f0d",
            "0xd8aa0f3194971a2a116679f7c2090f6939c8d4e01a2a8d7e41d55e5351469e63",
            "0x0000000000000000000000007682df12dc31d5dc6a1057958887d1ad6f4eed19",
            "0x00000000000000000000000024c1fd279b9b2631614d5cd5f9cc55dfec4422c2"
          ],
          "data": "0x",
          "blockHash": "0xace22cfff917678e32d2f6342c534b395a9a53ffab3ae765f86376b3746faf7d",
          "blockNumber": "0xbfc",
          "transactionHash": "0xd2b1ccc58e6b88275dcfafc171380732b7dc8fbbb1b7cf60c41313e2aecd6df4",
          "transactionIndex": "0x1",
          "logIndex": "0x0",
          "removed": false
        }
      ],
      "logsBloom": "0x00000004001000000000000000000000000000000000000000000000000000000000000000000000000000000001000000000000000000000200000010000000000000000000000000000000000000000000000000000000000000000000000400000000000000000000000000000000000000000000000004000008000000000000200000000000000001000000000000000000000000000000000000000000000000000000000000000000000000000000000000000020001000000000000000000000000000000000000000000000000000000000000100000000000000000000000000001000000400000000000000000000000000000000000000000000",
      "type": "0x2",
      "transactionHash": "0xd2b1ccc58e6b88275dcfafc171380732b7dc8fbbb1b7cf60c41313e2aecd6df4",
      "transactionIndex": "0x1",
      "blockHash": "0xace22cfff917678e32d2f6342c534b395a9a53ffab3ae765f86376b3746faf7d",
      "blockNumber": "0xbfc",
      "gasUsed": "0x10505",
      "effectiveGasPrice": "0x5f5e100",
      "from": "0x24c1fd279b9b2631614d5cd5f9cc55dfec4422c2",
      "to": "0x91e2e6958fdcb3687df924d71873ec3dbda952bb",
      "contractAddress": null,
      "gasUsedForL1": "0x30ec",
      "l1BlockNumber": "0x78c94a"
    }
  ],
  "libraries": [],
  "pending": [],
  "returns": {},
  "timestamp": 1742150053,
  "chain": 112000,
  "commit": "7768dd4"
}