{
  "transactions": [
    {
      "hash": "0x1f061f1f71d8e2e5c3f670a1ab6a1756560f3c975a45378be03b5ac6ec2b96f1",
      "transactionType": "CALL",
      "contractName": null,
      "contractAddress": "0x598face78a4302f11e3de0bee1894da0b2cb71f8",
      "function": "process(bytes,bytes)",
      "arguments": [
        "0x",
        "0x030000000d0001b5800000000000000000000000009bf90104dc52b645038780f5e4410ec036dd273d00066eee000000000000000000000000008635105b348396b6ccd18bb715a9b6db0e0d12cd529bc22ea77c069e40b14407c20aac6273efd98a15b38fd7e0500bf593e1ff00000000000000000000000000000000000000000000000000000000000000a0f781bb872e7a2eac21fa53f49cdd487c39abb82ef504755eb577fd6ac04aacffc91c6926277bd83cee9a9d79125f0dc9738073fdd2bb1e1c81ee38b123984b2c00000000000000000000000000000000000000000000000000000000000000e0000000000000000000000000000000000000000000000000000000000000002034c693c0b57c0c330f1b70e437b8bd9d2984c417f1b0914aa9fce023c82d5c3c000000000000000000000000000000000000000000000000000000000000005103e1685d689a5e1b4753106d2a5b36f51f85267d5630f62be19ec280920c2117e1363a80d268ece3cb3b9dc4ce648523ef665d9b59b3106b20215c3cb226569aeba3ad91766d5d630809d71e2f59733038000000000000000000000000000000"
      ],
      "transaction": {
        "from": "0x24c1fd279b9b2631614d5cd5f9cc55dfec4422c2",
        "to": "0x598face78a4302f11e3de0bee1894da0b2cb71f8",
        "gas": "0x51fb17",
        "value": "0x0",
        "input": "0x7c39d13000000000000000000000000000000000000000000000000000000000000000400000000000000000000000000000000000000000000000000000000000000060000000000000000000000000000000000000000000000000000000000000000000000000000000000000000000000000000000000000000000000000000001ad030000000d0001b5800000000000000000000000009bf90104dc52b645038780f5e4410ec036dd273d00066eee000000000000000000000000008635105b348396b6ccd18bb715a9b6db0e0d12cd529bc22ea77c069e40b14407c20aac6273efd98a15b38fd7e0500bf593e1ff00000000000000000000000000000000000000000000000000000000000000a0f781bb872e7a2eac21fa53f49cdd487c39abb82ef504755eb577fd6ac04aacffc91c6926277bd83cee9a9d79125f0dc9738073fdd2bb1e1c81ee38b123984b2c00000000000000000000000000000000000000000000000000000000000000e0000000000000000000000000000000000000000000000000000000000000002034c693c0b57c0c330f1b70e437b8bd9d2984c417f1b0914aa9fce023c82d5c3c000000000000000000000000000000000000000000000000000000000000005103e1685d689a5e1b4753106d2a5b36f51f85267d5630f62be19ec280920c2117e1363a80d268ece3cb3b9dc4ce648523ef665d9b59b3106b20215c3cb226569aeba3ad91766d5d630809d71e2f5973303800000000000000000000000000000000000000000000000000000000000000000000",
        "nonce": "0x70",
        "chainId": "0x66eee"
      },
      "additionalContracts": [],
      "isFixedGasLimit": false
    }
  ],
  "receipts": [
    {
      "status": "0x1",
      "cumulativeGasUsed": "0x3bfb7f",
      "logs": [
        {
          "address": "0x598face78a4302f11e3de0bee1894da0b2cb71f8",
          "topics": [
            "0x0d381c2a574ae8f04e213db7cfb4df8df712cdbd427d9868ffef380660ca6574",
            "0x000000000000000000000000000000000000000000000000000000000001b580",
            "0x0000000000000000000000009bf90104dc52b645038780f5e4410ec036dd273d",
            "0x000000000000000000000000008635105b348396b6ccd18bb715a9b6db0e0d12"
          ],
          "data": "0x",
          "blockHash": "0x8d9bd96efb6cffa334e16233a9c00eec9643d05921793104b58282ff8691ad63",
          "blockNumber": "0x803a48f",
          "transactionHash": "0x1f061f1f71d8e2e5c3f670a1ab6a1756560f3c975a45378be03b5ac6ec2b96f1",
          "transactionIndex": "0x2",
          "logIndex": "0x1",
          "removed": false
        },
        {
          "address": "0x598face78a4302f11e3de0bee1894da0b2cb71f8",
          "topics": [
            "0x1cae38cdd3d3919489272725a5ae62a4f48b2989b0dae843d3c279fee18073a9",
            "0x989aba914d5374f8a790b33c5ebff1fbad5c5f4d8e5829887b0ff50a302e2c10"
          ],
          "data": "0x",
          "blockHash": "0x8d9bd96efb6cffa334e16233a9c00eec9643d05921793104b58282ff8691ad63",
          "blockNumber": "0x803a48f",
          "transactionHash": "0x1f061f1f71d8e2e5c3f670a1ab6a1756560f3c975a45378be03b5ac6ec2b96f1",
          "transactionIndex": "0x2",
          "logIndex": "0x2",
          "removed": false
        },
        {
          "address": "0x008635105b348396b6ccd18bb715a9b6db0e0d12",
          "topics": [
            "0xf84bef8a22b29dc2466e22013621ad3d08fa0f3daeab49ad9b4c3c74b5d9f2b0",
            "0xcd529bc22ea77c069e40b14407c20aac6273efd98a15b38fd7e0500bf593e1ff"
          ],
          "data": "0x34c693c0b57c0c330f1b70e437b8bd9d2984c417f1b0914aa9fce023c82d5c3c0000000000000000000000000000000000000000000000000000000000000001",
          "blockHash": "0x8d9bd96efb6cffa334e16233a9c00eec9643d05921793104b58282ff8691ad63",
          "blockNumber": "0x803a48f",
          "transactionHash": "0x1f061f1f71d8e2e5c3f670a1ab6a1756560f3c975a45378be03b5ac6ec2b96f1",
          "transactionIndex": "0x2",
          "logIndex": "0x3",
          "removed": false
        }
      ],
      "logsBloom": "0x00000000001000000000000000040000000000001000000000000000000000000000000000010000000020000000000080000000200040000000000000000000010000000000000000000000000004000400000000200000000000000000000000000000000000000040000000000000000004000000000010000000200000000000000001000000000000000000000010000000000000000000000000000000000000080020000000000000000000020000000000000000000000000000000000400000000000000000000000002000000000000000000000000000800000000000000000100010000800000000000000000000004000000000000400000000",
      "type": "0x2",
      "transactionHash": "0x1f061f1f71d8e2e5c3f670a1ab6a1756560f3c975a45378be03b5ac6ec2b96f1",
      "transactionIndex": "0x2",
      "blockHash": "0x8d9bd96efb6cffa334e16233a9c00eec9643d05921793104b58282ff8691ad63",
      "blockNumber": "0x803a48f",
      "gasUsed": "0x3b431f",
      "effectiveGasPrice": "0x5f5e100",
      "from": "0x24c1fd279b9b2631614d5cd5f9cc55dfec4422c2",
      "to": "0x598face78a4302f11e3de0bee1894da0b2cb71f8",
      "contractAddress": null,
      "gasUsedForL1": "0x0",
      "l1BlockNumber": "0x794d44",
      "timeboosted": false
    }
  ],
  "libraries": [],
  "pending": [],
  "returns": {},
  "timestamp": 1742562668,
  "chain": 421614,
  "commit": "7768dd4"
}