{
  "transactions": [
    {
      "hash": "0x73895ddb377294a2e397efc6235c2f88e4b35d8f1bd7eef8a89e07fab184709c",
      "transactionType": "CALL",
      "contractName": null,
      "contractAddress": "0x64842c038db9af44d29d2a27ef50dbba6f7e43bb",
      "function": "requestRandomness(bytes,uint256)",
      "arguments": [
        "0xb0497a2fc0dba5cd",
        "300000"
      ],
      "transaction": {
        "from": "0x24c1fd279b9b2631614d5cd5f9cc55dfec4422c2",
        "to": "0x64842c038db9af44d29d2a27ef50dbba6f7e43bb",
        "gas": "0x49887",
        "value": "0x1",
        "input": "0xc764a699000000000000000000000000000000000000000000000000000000000000004000000000000000000000000000000000000000000000000000000000000493e00000000000000000000000000000000000000000000000000000000000000008b0497a2fc0dba5cd000000000000000000000000000000000000000000000000",
        "nonce": "0x72",
        "chainId": "0x66eee"
      },
      "additionalContracts": [],
      "isFixedGasLimit": false
    }
  ],
  "receipts": [
    {
      "status": "0x1",
      "cumulativeGasUsed": "0x65055",
      "logs": [
        {
          "address": "0x598face78a4302f11e3de0bee1894da0b2cb71f8",
          "topics": [
            "0x769f711d20c679153d382254f59892613b58a97cc876b249134ac25c80f9c814",
            "0x000000000000000000000000008635105b348396b6ccd18bb715a9b6db0e0d12",
            "0x000000000000000000000000000000000000000000000000000000000001b580",
            "0x0000000000000000000000009bf90104dc52b645038780f5e4410ec036dd273d"
          ],
          "data": "0x0000000000000000000000000000000000000000000000000000000000000020000000000000000000000000000000000000000000000000000000000000006d03000008d700066eee000000000000000000000000008635105b348396b6ccd18bb715a9b6db0e0d120001b5800000000000000000000000009bf90104dc52b645038780f5e4410ec036dd273d39258a4b3a61124ee0b8ece64324abe17a4e9ea4cae5efd0eae732d692dfe02700000000000000000000000000000000000000",
          "blockHash": "0x9bcfa6019149b14439f492b58b54366d239c2a3d39afd7965791ae4b129bedeb",
          "blockNumber": "0x803b324",
          "transactionHash": "0x73895ddb377294a2e397efc6235c2f88e4b35d8f1bd7eef8a89e07fab184709c",
          "transactionIndex": "0x2",
          "logIndex": "0x3",
          "removed": false
        },
        {
          "address": "0x598face78a4302f11e3de0bee1894da0b2cb71f8",
          "topics": [
            "0x788dbc1b7152732178210e7f4d9d010ef016f9eafbe66786bd7169f56e0c353a",
            "0x1046f1aa4d367ec0775628015e775c713bac0855afe6b9f623fbf4ce47a6a23e"
          ],
          "data": "0x",
          "blockHash": "0x9bcfa6019149b14439f492b58b54366d239c2a3d39afd7965791ae4b129bedeb",
          "blockNumber": "0x803b324",
          "transactionHash": "0x73895ddb377294a2e397efc6235c2f88e4b35d8f1bd7eef8a89e07fab184709c",
          "transactionIndex": "0x2",
          "logIndex": "0x4",
          "removed": false
        },
        {
          "address": "0xad34a66bf6db18e858f6b686557075568c6e031c",
          "topics": [
            "0x253a3a04cab70d47c1504809242d9350cd81627b4f1d50753e159cf8cd76ed33"
          ],
          "data": "0x1046f1aa4d367ec0775628015e775c713bac0855afe6b9f623fbf4ce47a6a23e0000000000000000000000000000000000000000000000000000000000000774",
          "blockHash": "0x9bcfa6019149b14439f492b58b54366d239c2a3d39afd7965791ae4b129bedeb",
          "blockNumber": "0x803b324",
          "transactionHash": "0x73895ddb377294a2e397efc6235c2f88e4b35d8f1bd7eef8a89e07fab184709c",
          "transactionIndex": "0x2",
          "logIndex": "0x5",
          "removed": false
        },
        {
          "address": "0x008635105b348396b6ccd18bb715a9b6db0e0d12",
          "topics": [
            "0x24824956716588cf18c3cb557ee25fa952255246eb51235316882371d343c355",
            "0x39258a4b3a61124ee0b8ece64324abe17a4e9ea4cae5efd0eae732d692dfe027",
            "0x00000000000000000000000064842c038db9af44d29d2a27ef50dbba6f7e43bb"
          ],
          "data": "0x",
          "blockHash": "0x9bcfa6019149b14439f492b58b54366d239c2a3d39afd7965791ae4b129bedeb",
          "blockNumber": "0x803b324",
          "transactionHash": "0x73895ddb377294a2e397efc6235c2f88e4b35d8f1bd7eef8a89e07fab184709c",
          "transactionIndex": "0x2",
          "logIndex": "0x6",
          "removed": false
        }
      ],
      "logsBloom": "0x00000000001000808000000000040000010000000001000000000000002000000000000000050000000020000000000080000000200040000000004000200800000000000000000000000000000004000000080000000000000000000000000000000000000000000040020000000000400000000000000020000000200000000000000010000000000000000000000000100000000100000000000000000004000000000000000000000000000000020200000000000000020000000000000000001000000000000000000000002000000000000000000000000000900000000000400000001000000000000000000002000000004000000000000000000000",
      "type": "0x2",
      "transactionHash": "0x73895ddb377294a2e397efc6235c2f88e4b35d8f1bd7eef8a89e07fab184709c",
      "transactionIndex": "0x2",
      "blockHash": "0x9bcfa6019149b14439f492b58b54366d239c2a3d39afd7965791ae4b129bedeb",
      "blockNumber": "0x803b324",
      "gasUsed": "0x371e6",
      "effectiveGasPrice": "0x5f5e100",
      "from": "0x24c1fd279b9b2631614d5cd5f9cc55dfec4422c2",
      "to": "0x64842c038db9af44d29d2a27ef50dbba6f7e43bb",
      "contractAddress": null,
      "gasUsedForL1": "0x0",
      "l1BlockNumber": "0x794d94",
      "timeboosted": false
    }
  ],
  "libraries": [],
  "pending": [],
  "returns": {},
  "timestamp": 1742563621,
  "chain": 421614,
  "commit": "7768dd4"
}