{
  "transactions": [
    {
      "hash": "0x432351749dff68a03a8bde7033caed469fc4aae5dddbb1c54f9ef7cb3fe41f33",
      "transactionType": "CALL",
      "contractName": null,
      "contractAddress": "0x64842c038db9af44d29d2a27ef50dbba6f7e43bb",
      "function": "requestRandomness(bytes,uint256)",
      "arguments": [
        "0x854c03cc27ad826e",
        "300000"
      ],
      "transaction": {
        "from": "0x24c1fd279b9b2631614d5cd5f9cc55dfec4422c2",
        "to": "0x64842c038db9af44d29d2a27ef50dbba6f7e43bb",
        "gas": "0x4fa9e",
        "value": "0x1",
        "input": "0xc764a699000000000000000000000000000000000000000000000000000000000000004000000000000000000000000000000000000000000000000000000000000493e00000000000000000000000000000000000000000000000000000000000000008854c03cc27ad826e000000000000000000000000000000000000000000000000",
        "nonce": "0x6f",
        "chainId": "0x66eee"
      },
      "additionalContracts": [],
      "isFixedGasLimit": false
    }
  ],
  "receipts": [
    {
      "status": "0x1",
      "cumulativeGasUsed": "0x52a29",
      "logs": [
        {
          "address": "0x598face78a4302f11e3de0bee1894da0b2cb71f8",
          "topics": [
            "0x769f711d20c679153d382254f59892613b58a97cc876b249134ac25c80f9c814",
            "0x000000000000000000000000008635105b348396b6ccd18bb715a9b6db0e0d12",
            "0x000000000000000000000000000000000000000000000000000000000001b580",
            "0x0000000000000000000000009bf90104dc52b645038780f5e4410ec036dd273d"
          ],
          "data": "0x0000000000000000000000000000000000000000000000000000000000000020000000000000000000000000000000000000000000000000000000000000006d03000008d500066eee000000000000000000000000008635105b348396b6ccd18bb715a9b6db0e0d120001b5800000000000000000000000009bf90104dc52b645038780f5e4410ec036dd273dcd529bc22ea77c069e40b14407c20aac6273efd98a15b38fd7e0500bf593e1ff00000000000000000000000000000000000000",
          "blockHash": "0x1c4c1621ee6dabf82c533a46de4d048d42d052ec6be4f41d3db443a63cadf051",
          "blockNumber": "0x803a2ed",
          "transactionHash": "0x432351749dff68a03a8bde7033caed469fc4aae5dddbb1c54f9ef7cb3fe41f33",
          "transactionIndex": "0x2",
          "logIndex": "0x1",
          "removed": false
        },
        {
          "address": "0x598face78a4302f11e3de0bee1894da0b2cb71f8",
          "topics": [
            "0x788dbc1b7152732178210e7f4d9d010ef016f9eafbe66786bd7169f56e0c353a",
            "0x4902711e27a2055c3cccacdd31a00215fe84ccddc39da1f75ec9fc1846b5f70c"
          ],
          "data": "0x",
          "blockHash": "0x1c4c1621ee6dabf82c533a46de4d048d42d052ec6be4f41d3db443a63cadf051",
          "blockNumber": "0x803a2ed",
          "transactionHash": "0x432351749dff68a03a8bde7033caed469fc4aae5dddbb1c54f9ef7cb3fe41f33",
          "transactionIndex": "0x2",
          "logIndex": "0x2",
          "removed": false
        },
        {
          "address": "0xad34a66bf6db18e858f6b686557075568c6e031c",
          "topics": [
            "0x253a3a04cab70d47c1504809242d9350cd81627b4f1d50753e159cf8cd76ed33"
          ],
          "data": "0x4902711e27a2055c3cccacdd31a00215fe84ccddc39da1f75ec9fc1846b5f70c0000000000000000000000000000000000000000000000000000000000000772",
          "blockHash": "0x1c4c1621ee6dabf82c533a46de4d048d42d052ec6be4f41d3db443a63cadf051",
          "blockNumber": "0x803a2ed",
          "transactionHash": "0x432351749dff68a03a8bde7033caed469fc4aae5dddbb1c54f9ef7cb3fe41f33",
          "transactionIndex": "0x2",
          "logIndex": "0x3",
          "removed": false
        },
        {
          "address": "0x008635105b348396b6ccd18bb715a9b6db0e0d12",
          "topics": [
            "0x24824956716588cf18c3cb557ee25fa952255246eb51235316882371d343c355",
            "0xcd529bc22ea77c069e40b14407c20aac6273efd98a15b38fd7e0500bf593e1ff",
            "0x00000000000000000000000064842c038db9af44d29d2a27ef50dbba6f7e43bb"
          ],
          "data": "0x",
          "blockHash": "0x1c4c1621ee6dabf82c533a46de4d048d42d052ec6be4f41d3db443a63cadf051",
          "blockNumber": "0x803a2ed",
          "transactionHash": "0x432351749dff68a03a8bde7033caed469fc4aae5dddbb1c54f9ef7cb3fe41f33",
          "transactionIndex": "0x2",
          "logIndex": "0x4",
          "removed": false
        }
      ],
      "logsBloom": "0x00000000001000808000000000040000010000000001000000000000002000000000000000050000000020000000000080000000200040000000004000200800000000000000000000000000000004000000080000000010000000000000000000000000000000000040020000000000000000000000000030000000200000000000000000000008000000000000000010100000000000000000000000000004000000000000000000000000000000020200000000000000000000000000000000401000000000000000000000002000000000000000000000000000800000000000400000000000000000000000000002000000004001000000000000000000",
      "type": "0x2",
      "transactionHash": "0x432351749dff68a03a8bde7033caed469fc4aae5dddbb1c54f9ef7cb3fe41f33",
      "transactionIndex": "0x2",
      "blockHash": "0x1c4c1621ee6dabf82c533a46de4d048d42d052ec6be4f41d3db443a63cadf051",
      "blockNumber": "0x803a2ed",
      "gasUsed": "0x3b4b2",
      "effectiveGasPrice": "0x5f5e100",
      "from": "0x24c1fd279b9b2631614d5cd5f9cc55dfec4422c2",
      "to": "0x64842c038db9af44d29d2a27ef50dbba6f7e43bb",
      "contractAddress": null,
      "gasUsedForL1": "0x0",
      "l1BlockNumber": "0x794d3b",
      "timeboosted": false
    }
  ],
  "libraries": [],
  "pending": [],
  "returns": {},
  "timestamp": 1742562560,
  "chain": 421614,
  "commit": "7768dd4"
}