{
  "transactions": [
    {
      "hash": "0xb3485484ffc7d33333375e129118a98c39f50716d8ea1c8428e03c3de126a885",
      "transactionType": "CALL",
      "contractName": null,
      "contractAddress": "0x64842c038db9af44d29d2a27ef50dbba6f7e43bb",
      "function": "requestRandomness(bytes,uint256)",
      "arguments": [
        "0x844409706a242d32",
        "300000"
      ],
      "transaction": {
        "from": "0x24c1fd279b9b2631614d5cd5f9cc55dfec4422c2",
        "to": "0x64842c038db9af44d29d2a27ef50dbba6f7e43bb",
        "gas": "0x49887",
        "value": "0x1",
        "input": "0xc764a699000000000000000000000000000000000000000000000000000000000000004000000000000000000000000000000000000000000000000000000000000493e00000000000000000000000000000000000000000000000000000000000000008844409706a242d32000000000000000000000000000000000000000000000000",
        "nonce": "0x76",
        "chainId": "0x66eee"
      },
      "additionalContracts": [],
      "isFixedGasLimit": false
    }
  ],
  "receipts": [
    {
      "status": "0x1",
      "cumulativeGasUsed": "0xcda03",
      "logs": [
        {
          "address": "0x598face78a4302f11e3de0bee1894da0b2cb71f8",
          "topics": [
            "0x769f711d20c679153d382254f59892613b58a97cc876b249134ac25c80f9c814",
            "0x000000000000000000000000008635105b348396b6ccd18bb715a9b6db0e0d12",
            "0x000000000000000000000000000000000000000000000000000000000001b580",
            "0x0000000000000000000000009bf90104dc52b645038780f5e4410ec036dd273d"
          ],
          "data": "0x0000000000000000000000000000000000000000000000000000000000000020000000000000000000000000000000000000000000000000000000000000006d03000008db00066eee000000000000000000000000008635105b348396b6ccd18bb715a9b6db0e0d120001b5800000000000000000000000009bf90104dc52b645038780f5e4410ec036dd273dc60370653047ae33d26c7098d054c4a9271d4d161e1659e8de770e5b7e1ceaab00000000000000000000000000000000000000",
          "blockHash": "0x38bad7bd80019b17aa115f922824aa19181548c1fec96bfe99ab02054828bc9a",
          "blockNumber": "0x803e743",
          "transactionHash": "0xb3485484ffc7d33333375e129118a98c39f50716d8ea1c8428e03c3de126a885",
          "transactionIndex": "0x5",
          "logIndex": "0xb",
          "removed": false
        },
        {
          "address": "0x598face78a4302f11e3de0bee1894da0b2cb71f8",
          "topics": [
            "0x788dbc1b7152732178210e7f4d9d010ef016f9eafbe66786bd7169f56e0c353a",
            "0x5c5cd454309e9ee1e0f1b48010ed8c85c85e438d5cac3f91ed2062d2904d7e4d"
          ],
          "data": "0x",
          "blockHash": "0x38bad7bd80019b17aa115f922824aa19181548c1fec96bfe99ab02054828bc9a",
          "blockNumber": "0x803e743",
          "transactionHash": "0xb3485484ffc7d33333375e129118a98c39f50716d8ea1c8428e03c3de126a885",
          "transactionIndex": "0x5",
          "logIndex": "0xc",
          "removed": false
        },
        {
          "address": "0xad34a66bf6db18e858f6b686557075568c6e031c",
          "topics": [
            "0x253a3a04cab70d47c1504809242d9350cd81627b4f1d50753e159cf8cd76ed33"
          ],
          "data": "0x5c5cd454309e9ee1e0f1b48010ed8c85c85e438d5cac3f91ed2062d2904d7e4d0000000000000000000000000000000000000000000000000000000000000778",
          "blockHash": "0x38bad7bd80019b17aa115f922824aa19181548c1fec96bfe99ab02054828bc9a",
          "blockNumber": "0x803e743",
          "transactionHash": "0xb3485484ffc7d33333375e129118a98c39f50716d8ea1c8428e03c3de126a885",
          "transactionIndex": "0x5",
          "logIndex": "0xd",
          "removed": false
        },
        {
          "address": "0x008635105b348396b6ccd18bb715a9b6db0e0d12",
          "topics": [
            "0x24824956716588cf18c3cb557ee25fa952255246eb51235316882371d343c355",
            "0xc60370653047ae33d26c7098d054c4a9271d4d161e1659e8de770e5b7e1ceaab",
            "0x00000000000000000000000064842c038db9af44d29d2a27ef50dbba6f7e43bb"
          ],
          "data": "0x",
          "blockHash": "0x38bad7bd80019b17aa115f922824aa19181548c1fec96bfe99ab02054828bc9a",
          "blockNumber": "0x803e743",
          "transactionHash": "0xb3485484ffc7d33333375e129118a98c39f50716d8ea1c8428e03c3de126a885",
          "transactionIndex": "0x5",
          "logIndex": "0xe",
          "removed": false
        }
      ],
      "logsBloom": "0x00000000001000808000000000040000010000000001000000000000002000000000000000050000000020000000000080000000200040000000004000200800000000000000000000000000000004000000080000000000000000000000000000000000000000000040020000000000000000000000000020000000200000000400000000000000000000000000000000100000000000000000000000000004000000000000008000000000000000020200040000000000000004000000000000001000000080000000000000002000000000000000000000000000800000002000400000000000000000000000000002000000004000000000000000000000",
      "type": "0x2",
      "transactionHash": "0xb3485484ffc7d33333375e129118a98c39f50716d8ea1c8428e03c3de126a885",
      "transactionIndex": "0x5",
      "blockHash": "0x38bad7bd80019b17aa115f922824aa19181548c1fec96bfe99ab02054828bc9a",
      "blockNumber": "0x803e743",
      "gasUsed": "0x371e6",
      "effectiveGasPrice": "0x5f5e100",
      "from": "0x24c1fd279b9b2631614d5cd5f9cc55dfec4422c2",
      "to": "0x64842c038db9af44d29d2a27ef50dbba6f7e43bb",
      "contractAddress": null,
      "gasUsedForL1": "0x0",
      "l1BlockNumber": "0x794eb3",
      "timeboosted": false
    }
  ],
  "libraries": [],
  "pending": [],
  "returns": {},
  "timestamp": 1742567067,
  "chain": 421614,
  "commit": "7768dd4"
}