{
  "transactions": [
    {
      "hash": "0x439b93e5c1add7715f8a901e9a1eb2eea0dd5ea9ace9111d5d4bc30c4a329f97",
      "transactionType": "CALL",
      "contractName": null,
      "contractAddress": "0x63c67422ad4515e4969bbbba0f5e002303a7aff3",
      "function": "requestRandomness(bytes,uint256)",
      "arguments": [
        "0xfd96b7af87ca6266",
        "300000"
      ],
      "transaction": {
        "from": "0x24c1fd279b9b2631614d5cd5f9cc55dfec4422c2",
        "to": "0x63c67422ad4515e4969bbbba0f5e002303a7aff3",
        "gas": "0x4ae7d",
        "value": "0x1",
        "input": "0xc764a699000000000000000000000000000000000000000000000000000000000000004000000000000000000000000000000000000000000000000000000000000493e00000000000000000000000000000000000000000000000000000000000000008fd96b7af87ca6266000000000000000000000000000000000000000000000000",
        "nonce": "0x60",
        "chainId": "0x66eee"
      },
      "additionalContracts": [],
      "isFixedGasLimit": false
    }
  ],
  "receipts": [
    {
      "status": "0x1",
      "cumulativeGasUsed": "0x37b7e",
      "logs": [
        {
          "address": "0x598face78a4302f11e3de0bee1894da0b2cb71f8",
          "topics": [
            "0x769f711d20c679153d382254f59892613b58a97cc876b249134ac25c80f9c814",
            "0x0000000000000000000000009a0766d9730ae0f17e81143c8a632b3dca613cd4",
            "0x000000000000000000000000000000000000000000000000000000000001b580",
            "0x0000000000000000000000009bf90104dc52b645038780f5e4410ec036dd273d"
          ],
          "data": "0x0000000000000000000000000000000000000000000000000000000000000020000000000000000000000000000000000000000000000000000000000000006d03000008ca00066eee0000000000000000000000009a0766d9730ae0f17e81143c8a632b3dca613cd40001b5800000000000000000000000009bf90104dc52b645038780f5e4410ec036dd273df039a8085ae59fb2bed85ebe2281e87c8458f5dccd26dbf5884e89249d0d0e8500000000000000000000000000000000000000",
          "blockHash": "0x3218dabcc1bf959cb51c9478bc2935bd6169c3892e0a89cacd922660cddab617",
          "blockNumber": "0x802f529",
          "transactionHash": "0x439b93e5c1add7715f8a901e9a1eb2eea0dd5ea9ace9111d5d4bc30c4a329f97",
          "transactionIndex": "0x1",
          "logIndex": "0x0",
          "removed": false
        },
        {
          "address": "0x598face78a4302f11e3de0bee1894da0b2cb71f8",
          "topics": [
            "0x788dbc1b7152732178210e7f4d9d010ef016f9eafbe66786bd7169f56e0c353a",
            "0x54bd9791484ab4475fba24223b5893fb8d5d2a601329d578ffb99ca6c7b1fc9f"
          ],
          "data": "0x",
          "blockHash": "0x3218dabcc1bf959cb51c9478bc2935bd6169c3892e0a89cacd922660cddab617",
          "blockNumber": "0x802f529",
          "transactionHash": "0x439b93e5c1add7715f8a901e9a1eb2eea0dd5ea9ace9111d5d4bc30c4a329f97",
          "transactionIndex": "0x1",
          "logIndex": "0x1",
          "removed": false
        },
        {
          "address": "0xad34a66bf6db18e858f6b686557075568c6e031c",
          "topics": [
            "0x253a3a04cab70d47c1504809242d9350cd81627b4f1d50753e159cf8cd76ed33"
          ],
          "data": "0x54bd9791484ab4475fba24223b5893fb8d5d2a601329d578ffb99ca6c7b1fc9f0000000000000000000000000000000000000000000000000000000000000769",
          "blockHash": "0x3218dabcc1bf959cb51c9478bc2935bd6169c3892e0a89cacd922660cddab617",
          "blockNumber": "0x802f529",
          "transactionHash": "0x439b93e5c1add7715f8a901e9a1eb2eea0dd5ea9ace9111d5d4bc30c4a329f97",
          "transactionIndex": "0x1",
          "logIndex": "0x2",
          "removed": false
        },
        {
          "address": "0x9a0766d9730ae0f17e81143c8a632b3dca613cd4",
          "topics": [
            "0x24824956716588cf18c3cb557ee25fa952255246eb51235316882371d343c355",
            "0xf039a8085ae59fb2bed85ebe2281e87c8458f5dccd26dbf5884e89249d0d0e85",
            "0x00000000000000000000000063c67422ad4515e4969bbbba0f5e002303a7aff3"
          ],
          "data": "0x",
          "blockHash": "0x3218dabcc1bf959cb51c9478bc2935bd6169c3892e0a89cacd922660cddab617",
          "blockNumber": "0x802f529",
          "transactionHash": "0x439b93e5c1add7715f8a901e9a1eb2eea0dd5ea9ace9111d5d4bc30c4a329f97",
          "transactionIndex": "0x1",
          "logIndex": "0x3",
          "removed": false
        }
      ],
      "logsBloom": "0x00000000001000808000000000040000000000008000000000000000002000000000000000000000000022000000000000000000200040000000004000200800001000100000000000000000000004002000080000000000000000000000000000000004000000000044820000000000000000000000000020000000000000000000000000000000000000000000000000100000000000000000800000000004000000000000000000000000000000020200000000000010000000000000000008001000000200000000100000002000000000000800000000000200000000000000400000000000000000000000000002000000000000000000000000000000",
      "type": "0x2",
      "transactionHash": "0x439b93e5c1add7715f8a901e9a1eb2eea0dd5ea9ace9111d5d4bc30c4a329f97",
      "transactionIndex": "0x1",
      "blockHash": "0x3218dabcc1bf959cb51c9478bc2935bd6169c3892e0a89cacd922660cddab617",
      "blockNumber": "0x802f529",
      "gasUsed": "0x37b7e",
      "effectiveGasPrice": "0x5f5e100",
      "from": "0x24c1fd279b9b2631614d5cd5f9cc55dfec4422c2",
      "to": "0x63c67422ad4515e4969bbbba0f5e002303a7aff3",
      "contractAddress": null,
      "gasUsedForL1": "0x0",
      "l1BlockNumber": "0x79496b",
      "timeboosted": false
    }
  ],
  "libraries": [],
  "pending": [],
  "returns": {},
  "timestamp": 1742550814,
  "chain": 421614,
  "commit": "7768dd4"
}