{
  "transactions": [
    {
      "hash": "0x5c4870786cd95502111456409c0e26893870dec7db1cc13896f7a88bf778e9f2",
      "transactionType": "CALL",
      "contractName": null,
      "contractAddress": "0x64842c038db9af44d29d2a27ef50dbba6f7e43bb",
      "function": "requestRandomness(bytes,uint256)",
      "arguments": [
        "0x50793c1f99e55b2f",
        "300000"
      ],
      "transaction": {
        "from": "0x24c1fd279b9b2631614d5cd5f9cc55dfec4422c2",
        "to": "0x64842c038db9af44d29d2a27ef50dbba6f7e43bb",
        "gas": "0x4bbb8",
        "value": "0x1",
        "input": "0xc764a699000000000000000000000000000000000000000000000000000000000000004000000000000000000000000000000000000000000000000000000000000493e0000000000000000000000000000000000000000000000000000000000000000850793c1f99e55b2f000000000000000000000000000000000000000000000000",
        "nonce": "0x71",
        "chainId": "0x66eee"
      },
      "additionalContracts": [],
      "isFixedGasLimit": false
    }
  ],
  "receipts": [
    {
      "status": "0x1",
      "cumulativeGasUsed": "0xe7d5b",
      "logs": [
        {
          "address": "0x598face78a4302f11e3de0bee1894da0b2cb71f8",
          "topics": [
            "0x769f711d20c679153d382254f59892613b58a97cc876b249134ac25c80f9c814",
            "0x000000000000000000000000008635105b348396b6ccd18bb715a9b6db0e0d12",
            "0x000000000000000000000000000000000000000000000000000000000001b580",
            "0x0000000000000000000000009bf90104dc52b645038780f5e4410ec036dd273d"
          ],
          "data": "0x0000000000000000000000000000000000000000000000000000000000000020000000000000000000000000000000000000000000000000000000000000006d03000008d600066eee000000000000000000000000008635105b348396b6ccd18bb715a9b6db0e0d120001b5800000000000000000000000009bf90104dc52b645038780f5e4410ec036dd273d28af39e304a550e255df3b4348fd4d3d8bb946c94eb5a12e40adca0490203e7d00000000000000000000000000000000000000",
          "blockHash": "0xf0d6ecf9e9171e2ce7023e5e7f1e134c49700bed87e86aa0d56b077a2692e0e2",
          "blockNumber": "0x803a7b7",
          "transactionHash": "0x5c4870786cd95502111456409c0e26893870dec7db1cc13896f7a88bf778e9f2",
          "transactionIndex": "0x3",
          "logIndex": "0x2d",
          "removed": false
        },
        {
          "address": "0x598face78a4302f11e3de0bee1894da0b2cb71f8",
          "topics": [
            "0x788dbc1b7152732178210e7f4d9d010ef016f9eafbe66786bd7169f56e0c353a",
            "0x7cb9c5e99503907dcc1f763a3d0947b36d12b56a3055be3a62b8c5237fbe6857"
          ],
          "data": "0x",
          "blockHash": "0xf0d6ecf9e9171e2ce7023e5e7f1e134c49700bed87e86aa0d56b077a2692e0e2",
          "blockNumber": "0x803a7b7",
          "transactionHash": "0x5c4870786cd95502111456409c0e26893870dec7db1cc13896f7a88bf778e9f2",
          "transactionIndex": "0x3",
          "logIndex": "0x2e",
          "removed": false
        },
        {
          "address": "0xad34a66bf6db18e858f6b686557075568c6e031c",
          "topics": [
            "0x253a3a04cab70d47c1504809242d9350cd81627b4f1d50753e159cf8cd76ed33"
          ],
          "data": "0x7cb9c5e99503907dcc1f763a3d0947b36d12b56a3055be3a62b8c5237fbe68570000000000000000000000000000000000000000000000000000000000000773",
          "blockHash": "0xf0d6ecf9e9171e2ce7023e5e7f1e134c49700bed87e86aa0d56b077a2692e0e2",
          "blockNumber": "0x803a7b7",
          "transactionHash": "0x5c4870786cd95502111456409c0e26893870dec7db1cc13896f7a88bf778e9f2",
          "transactionIndex": "0x3",
          "logIndex": "0x2f",
          "removed": false
        },
        {
          "address": "0x008635105b348396b6ccd18bb715a9b6db0e0d12",
          "topics": [
            "0x24824956716588cf18c3cb557ee25fa952255246eb51235316882371d343c355",
            "0x28af39e304a550e255df3b4348fd4d3d8bb946c94eb5a12e40adca0490203e7d",
            "0x00000000000000000000000064842c038db9af44d29d2a27ef50dbba6f7e43bb"
          ],
          "data": "0x",
          "blockHash": "0xf0d6ecf9e9171e2ce7023e5e7f1e134c49700bed87e86aa0d56b077a2692e0e2",
          "blockNumber": "0x803a7b7",
          "transactionHash": "0x5c4870786cd95502111456409c0e26893870dec7db1cc13896f7a88bf778e9f2",
          "transactionIndex": "0x3",
          "logIndex": "0x30",
          "removed": false
        }
      ],
      "logsBloom": "0x00000000001000808000000000040000010000000001000000010000002000000000400000050000000020000000000080000000200040000000004004200800000000000000000000000000000004000000080000000000000000000000000000000000000000000040020100000000000000000000000020000000200000000000000000000000000000000000000000100000000000000000000000000004000000000000000000000000000000020200000000000000000000000000000000003000000000000000000000002000000000000000000000000000800000000000400000000000004000000000000002000000004000000000000000000000",
      "type": "0x2",
      "transactionHash": "0x5c4870786cd95502111456409c0e26893870dec7db1cc13896f7a88bf778e9f2",
      "transactionIndex": "0x3",
      "blockHash": "0xf0d6ecf9e9171e2ce7023e5e7f1e134c49700bed87e86aa0d56b077a2692e0e2",
      "blockNumber": "0x803a7b7",
      "gasUsed": "0x38570",
      "effectiveGasPrice": "0x5f5e100",
      "from": "0x24c1fd279b9b2631614d5cd5f9cc55dfec4422c2",
      "to": "0x64842c038db9af44d29d2a27ef50dbba6f7e43bb",
      "contractAddress": null,
      "gasUsedForL1": "0x0",
      "l1BlockNumber": "0x794d55",
      "timeboosted": false
    }
  ],
  "libraries": [],
  "pending": [],
  "returns": {},
  "timestamp": 1742562875,
  "chain": 421614,
  "commit": "7768dd4"
}