{
  "transactions": [
    {
      "hash": "0x7f828e334989767d64d6f1475c9203e068a15ba620f62fa06ede507d8f5006f6",
      "transactionType": "CALL",
      "contractName": null,
      "contractAddress": "0x64842c038db9af44d29d2a27ef50dbba6f7e43bb",
      "function": "requestRandomness(bytes,uint256)",
      "arguments": [
        "0x150dba69cd333f66",
        "300000"
      ],
      "transaction": {
        "from": "0x24c1fd279b9b2631614d5cd5f9cc55dfec4422c2",
        "to": "0x64842c038db9af44d29d2a27ef50dbba6f7e43bb",
        "gas": "0x49887",
        "value": "0x1",
        "input": "0xc764a699000000000000000000000000000000000000000000000000000000000000004000000000000000000000000000000000000000000000000000000000000493e00000000000000000000000000000000000000000000000000000000000000008150dba69cd333f66000000000000000000000000000000000000000000000000",
        "nonce": "0x74",
        "chainId": "0x66eee"
      },
      "additionalContracts": [],
      "isFixedGasLimit": false
    }
  ],
  "receipts": [
    {
      "status": "0x1",
      "cumulativeGasUsed": "0x6f3fb",
      "logs": [
        {
          "address": "0x598face78a4302f11e3de0bee1894da0b2cb71f8",
          "topics": [
            "0x769f711d20c679153d382254f59892613b58a97cc876b249134ac25c80f9c814",
            "0x000000000000000000000000008635105b348396b6ccd18bb715a9b6db0e0d12",
            "0x000000000000000000000000000000000000000000000000000000000001b580",
            "0x0000000000000000000000009bf90104dc52b645038780f5e4410ec036dd273d"
          ],
          "data": "0x0000000000000000000000000000000000000000000000000000000000000020000000000000000000000000000000000000000000000000000000000000006d03000008d900066eee000000000000000000000000008635105b348396b6ccd18bb715a9b6db0e0d120001b5800000000000000000000000009bf90104dc52b645038780f5e4410ec036dd273dc4bd40f3ead971cd9f712ee2ed3650dbfb29680a6313f6ef21e7591f831c5bae00000000000000000000000000000000000000",
          "blockHash": "0x04f30eb784d1de4dd91dd5c098aaca7fc178dc606471e8325f1a889e1f8405ca",
          "blockNumber": "0x803b88f",
          "transactionHash": "0x7f828e334989767d64d6f1475c9203e068a15ba620f62fa06ede507d8f5006f6",
          "transactionIndex": "0x3",
          "logIndex": "0x6",
          "removed": false
        },
        {
          "address": "0x598face78a4302f11e3de0bee1894da0b2cb71f8",
          "topics": [
            "0x788dbc1b7152732178210e7f4d9d010ef016f9eafbe66786bd7169f56e0c353a",
            "0xbe4f68b3c23aea24ccdae060fdf9d091f04c02925bdf5079f882e72c786e6502"
          ],
          "data": "0x",
          "blockHash": "0x04f30eb784d1de4dd91dd5c098aaca7fc178dc606471e8325f1a889e1f8405ca",
          "blockNumber": "0x803b88f",
          "transactionHash": "0x7f828e334989767d64d6f1475c9203e068a15ba620f62fa06ede507d8f5006f6",
          "transactionIndex": "0x3",
          "logIndex": "0x7",
          "removed": false
        },
        {
          "address": "0xad34a66bf6db18e858f6b686557075568c6e031c",
          "topics": [
            "0x253a3a04cab70d47c1504809242d9350cd81627b4f1d50753e159cf8cd76ed33"
          ],
          "data": "0xbe4f68b3c23aea24ccdae060fdf9d091f04c02925bdf5079f882e72c786e65020000000000000000000000000000000000000000000000000000000000000776",
          "blockHash": "0x04f30eb784d1de4dd91dd5c098aaca7fc178dc606471e8325f1a889e1f8405ca",
          "blockNumber": "0x803b88f",
          "transactionHash": "0x7f828e334989767d64d6f1475c9203e068a15ba620f62fa06ede507d8f5006f6",
          "transactionIndex": "0x3",
          "logIndex": "0x8",
          "removed": false
        },
        {
          "address": "0x008635105b348396b6ccd18bb715a9b6db0e0d12",
          "topics": [
            "0x24824956716588cf18c3cb557ee25fa952255246eb51235316882371d343c355",
            "0xc4bd40f3ead971cd9f712ee2ed3650dbfb29680a6313f6ef21e7591f831c5bae",
            "0x00000000000000000000000064842c038db9af44d29d2a27ef50dbba6f7e43bb"
          ],
          "data": "0x",
          "blockHash": "0x04f30eb784d1de4dd91dd5c098aaca7fc178dc606471e8325f1a889e1f8405ca",
          "blockNumber": "0x803b88f",
          "transactionHash": "0x7f828e334989767d64d6f1475c9203e068a15ba620f62fa06ede507d8f5006f6",
          "transactionIndex": "0x3",
          "logIndex": "0x9",
          "removed": false
        }
      ],
      "logsBloom": "0x00000000001000808000000000040000010000000001000000000000002000000100000000050000000020000000000080000000200040000000004000200800000000000000000000000000000004000000080200000000000000000000000000000000000000008040020000000000000000000000000020000000200000000000000001000000000000000000000000100000000000000000020000000004000000000000000000000000000000020200000000000000000000000000000000001040000000000000000000002000000000000000000000000000800000000000400000000000000000000000000002000000004000000000000000000000",
      "type": "0x2",
      "transactionHash": "0x7f828e334989767d64d6f1475c9203e068a15ba620f62fa06ede507d8f5006f6",
      "transactionIndex": "0x3",
      "blockHash": "0x04f30eb784d1de4dd91dd5c098aaca7fc178dc606471e8325f1a889e1f8405ca",
      "blockNumber": "0x803b88f",
      "gasUsed": "0x371e6",
      "effectiveGasPrice": "0x5f5e100",
      "from": "0x24c1fd279b9b2631614d5cd5f9cc55dfec4422c2",
      "to": "0x64842c038db9af44d29d2a27ef50dbba6f7e43bb",
      "contractAddress": null,
      "gasUsedForL1": "0x0",
      "l1BlockNumber": "0x794db1",
      "timeboosted": false
    }
  ],
  "libraries": [],
  "pending": [],
  "returns": {},
  "timestamp": 1742563972,
  "chain": 421614,
  "commit": "7768dd4"
}