{
  "transactions": [
    {
      "hash": "0x99055896eb363ff532e0ee9a20018882d50c5238a9d4ec52fc032076fdf7327f",
      "transactionType": "CALL",
      "contractName": null,
      "contractAddress": "0x63c67422ad4515e4969bbbba0f5e002303a7aff3",
      "function": "requestRandomness(bytes,uint256)",
      "arguments": [
        "0x23fbc2f9c50ff897",
        "300000"
      ],
      "transaction": {
        "from": "0x24c1fd279b9b2631614d5cd5f9cc55dfec4422c2",
        "to": "0x63c67422ad4515e4969bbbba0f5e002303a7aff3",
        "gas": "0x4bb7d",
        "value": "0x1",
        "input": "0xc764a699000000000000000000000000000000000000000000000000000000000000004000000000000000000000000000000000000000000000000000000000000493e0000000000000000000000000000000000000000000000000000000000000000823fbc2f9c50ff897000000000000000000000000000000000000000000000000",
        "nonce": "0x62",
        "chainId": "0x66eee"
      },
      "additionalContracts": [],
      "isFixedGasLimit": false
    }
  ],
  "receipts": [
    {
      "status": "0x1",
      "cumulativeGasUsed": "0x38543",
      "logs": [
        {
          "address": "0x598face78a4302f11e3de0bee1894da0b2cb71f8",
          "topics": [
            "0x769f711d20c679153d382254f59892613b58a97cc876b249134ac25c80f9c814",
            "0x0000000000000000000000009a0766d9730ae0f17e81143c8a632b3dca613cd4",
            "0x000000000000000000000000000000000000000000000000000000000001b580",
            "0x0000000000000000000000009bf90104dc52b645038780f5e4410ec036dd273d"
          ],
          "data": "0x0000000000000000000000000000000000000000000000000000000000000020000000000000000000000000000000000000000000000000000000000000006d03000008cc00066eee0000000000000000000000009a0766d9730ae0f17e81143c8a632b3dca613cd40001b5800000000000000000000000009bf90104dc52b645038780f5e4410ec036dd273d50dd72e58489a16e4a18dc3a2bb86fafa51a1527748408b80e91748cbac945b800000000000000000000000000000000000000",
          "blockHash": "0x33f6365a2c019b37ca9f185302774ac5bf999d630515876611a187b4fa71b123",
          "blockNumber": "0x802ff1b",
          "transactionHash": "0x99055896eb363ff532e0ee9a20018882d50c5238a9d4ec52fc032076fdf7327f",
          "transactionIndex": "0x1",
          "logIndex": "0x0",
          "removed": false
        },
        {
          "address": "0x598face78a4302f11e3de0bee1894da0b2cb71f8",
          "topics": [
            "0x788dbc1b7152732178210e7f4d9d010ef016f9eafbe66786bd7169f56e0c353a",
            "0xd0a352584f1fed944954f9bca1e52ae6f7d919d896b458516c8c0a2c318a5a0b"
          ],
          "data": "0x",
          "blockHash": "0x33f6365a2c019b37ca9f185302774ac5bf999d630515876611a187b4fa71b123",
          "blockNumber": "0x802ff1b",
          "transactionHash": "0x99055896eb363ff532e0ee9a20018882d50c5238a9d4ec52fc032076fdf7327f",
          "transactionIndex": "0x1",
          "logIndex": "0x1",
          "removed": false
        },
        {
          "address": "0xad34a66bf6db18e858f6b686557075568c6e031c",
          "topics": [
            "0x253a3a04cab70d47c1504809242d9350cd81627b4f1d50753e159cf8cd76ed33"
          ],
          "data": "0xd0a352584f1fed944954f9bca1e52ae6f7d919d896b458516c8c0a2c318a5a0b000000000000000000000000000000000000000000000000000000000000076b",
          "blockHash": "0x33f6365a2c019b37ca9f185302774ac5bf999d630515876611a187b4fa71b123",
          "blockNumber": "0x802ff1b",
          "transactionHash": "0x99055896eb363ff532e0ee9a20018882d50c5238a9d4ec52fc032076fdf7327f",
          "transactionIndex": "0x1",
          "logIndex": "0x2",
          "removed": false
        },
        {
          "address": "0x9a0766d9730ae0f17e81143c8a632b3dca613cd4",
          "topics": [
            "0x24824956716588cf18c3cb557ee25fa952255246eb51235316882371d343c355",
            "0x50dd72e58489a16e4a18dc3a2bb86fafa51a1527748408b80e91748cbac945b8",
            "0x00000000000000000000000063c67422ad4515e4969bbbba0f5e002303a7aff3"
          ],
          "data": "0x",
          "blockHash": "0x33f6365a2c019b37ca9f185302774ac5bf999d630515876611a187b4fa71b123",
          "blockNumber": "0x802ff1b",
          "transactionHash": "0x99055896eb363ff532e0ee9a20018882d50c5238a9d4ec52fc032076fdf7327f",
          "transactionIndex": "0x1",
          "logIndex": "0x3",
          "removed": false
        }
      ],
      "logsBloom": "0x00000000001000808000000000040000000000000000000000000000002000000000000000000000000022000000000000000000200040000000004010200800001000000000000000000000000004002000080000000000000000000000000000000000000000000040820000000000000000000000000220002000010000000000000000000000000000000000000000100010000000000000800000000004000000000000000000000000000000020200000000000000000000000000000008001000000200000000100000002000000000000800000000000000000000000000400000400000000000000000000002000000000000000000000000000000",
      "type": "0x2",
      "transactionHash": "0x99055896eb363ff532e0ee9a20018882d50c5238a9d4ec52fc032076fdf7327f",
      "transactionIndex": "0x1",
      "blockHash": "0x33f6365a2c019b37ca9f185302774ac5bf999d630515876611a187b4fa71b123",
      "blockNumber": "0x802ff1b",
      "gasUsed": "0x38543",
      "effectiveGasPrice": "0x5f5e100",
      "from": "0x24c1fd279b9b2631614d5cd5f9cc55dfec4422c2",
      "to": "0x63c67422ad4515e4969bbbba0f5e002303a7aff3",
      "contractAddress": null,
      "gasUsedForL1": "0x0",
      "l1BlockNumber": "0x7949a3",
      "timeboosted": false
    }
  ],
  "libraries": [],
  "pending": [],
  "returns": {},
  "timestamp": 1742551478,
  "chain": 421614,
  "commit": "7768dd4"
}