{
  "transactions": [
    {
      "hash": "0xa9aed3e9deec22ade27cbc6bc2f9325996696964f0b4c55eaf8a8be41d1cc591",
      "transactionType": "CALL",
      "contractName": null,
      "contractAddress": "0x64842c038db9af44d29d2a27ef50dbba6f7e43bb",
      "function": "requestRandomness(bytes,uint256)",
      "arguments": [
        "0xbf97d6118f338b58",
        "300000"
      ],
      "transaction": {
        "from": "0x24c1fd279b9b2631614d5cd5f9cc55dfec4422c2",
        "to": "0x64842c038db9af44d29d2a27ef50dbba6f7e43bb",
        "gas": "0x4aeb7",
        "value": "0x1",
        "input": "0xc764a699000000000000000000000000000000000000000000000000000000000000004000000000000000000000000000000000000000000000000000000000000493e00000000000000000000000000000000000000000000000000000000000000008bf97d6118f338b58000000000000000000000000000000000000000000000000",
        "nonce": "0x77",
        "chainId": "0x66eee"
      },
      "additionalContracts": [],
      "isFixedGasLimit": false
    }
  ],
  "receipts": [
    {
      "status": "0x1",
      "cumulativeGasUsed": "0x3fb12",
      "logs": [
        {
          "address": "0x598face78a4302f11e3de0bee1894da0b2cb71f8",
          "topics": [
            "0x769f711d20c679153d382254f59892613b58a97cc876b249134ac25c80f9c814",
            "0x000000000000000000000000008635105b348396b6ccd18bb715a9b6db0e0d12",
            "0x000000000000000000000000000000000000000000000000000000000001b580",
            "0x0000000000000000000000009bf90104dc52b645038780f5e4410ec036dd273d"
          ],
          "data": "0x0000000000000000000000000000000000000000000000000000000000000020000000000000000000000000000000000000000000000000000000000000006d03000008dc00066eee000000000000000000000000008635105b348396b6ccd18bb715a9b6db0e0d120001b5800000000000000000000000009bf90104dc52b645038780f5e4410ec036dd273db6fa4d20225a405e095c05cc78a1a59cf7286863ab46abd1df3ea04339aa729600000000000000000000000000000000000000",
          "blockHash": "0xd67918365193b82da93b61b55148905129cbb16889ffe1ab90332c57720e5f79",
          "blockNumber": "0x803f030",
          "transactionHash": "0xa9aed3e9deec22ade27cbc6bc2f9325996696964f0b4c55eaf8a8be41d1cc591",
          "transactionIndex": "0x2",
          "logIndex": "0x1",
          "removed": false
        },
        {
          "address": "0x598face78a4302f11e3de0bee1894da0b2cb71f8",
          "topics": [
            "0x788dbc1b7152732178210e7f4d9d010ef016f9eafbe66786bd7169f56e0c353a",
            "0xe08501e7b8fcad172b068f2fc4077702283e793d60618d2d05c4a9592624919b"
          ],
          "data": "0x",
          "blockHash": "0xd67918365193b82da93b61b55148905129cbb16889ffe1ab90332c57720e5f79",
          "blockNumber": "0x803f030",
          "transactionHash": "0xa9aed3e9deec22ade27cbc6bc2f9325996696964f0b4c55eaf8a8be41d1cc591",
          "transactionIndex": "0x2",
          "logIndex": "0x2",
          "removed": false
        },
        {
          "address": "0xad34a66bf6db18e858f6b686557075568c6e031c",
          "topics": [
            "0x253a3a04cab70d47c1504809242d9350cd81627b4f1d50753e159cf8cd76ed33"
          ],
          "data": "0xe08501e7b8fcad172b068f2fc4077702283e793d60618d2d05c4a9592624919b0000000000000000000000000000000000000000000000000000000000000779",
          "blockHash": "0xd67918365193b82da93b61b55148905129cbb16889ffe1ab90332c57720e5f79",
          "blockNumber": "0x803f030",
          "transactionHash": "0xa9aed3e9deec22ade27cbc6bc2f9325996696964f0b4c55eaf8a8be41d1cc591",
          "transactionIndex": "0x2",
          "logIndex": "0x3",
          "removed": false
        },
        {
          "address": "0x008635105b348396b6ccd18bb715a9b6db0e0d12",
          "topics": [
            "0x24824956716588cf18c3cb557ee25fa952255246eb51235316882371d343c355",
            "0xb6fa4d20225a405e095c05cc78a1a59cf7286863ab46abd1df3ea04339aa7296",
            "0x00000000000000000000000064842c038db9af44d29d2a27ef50dbba6f7e43bb"
          ],
          "data": "0x",
          "blockHash": "0xd67918365193b82da93b61b55148905129cbb16889ffe1ab90332c57720e5f79",
          "blockNumber": "0x803f030",
          "transactionHash": "0xa9aed3e9deec22ade27cbc6bc2f9325996696964f0b4c55eaf8a8be41d1cc591",
          "transactionIndex": "0x2",
          "logIndex": "0x4",
          "removed": false
        }
      ],
      "logsBloom": "0x00000000001000808000000000040000010000000001000000000000002000000000000000050000000020000000000080000000200040000000004000204800000000000000000000000000000004000000080000000000000000000000000000000000000000000448020000100000000000000000000020000000200000000000000000000000000000000000000000100000000000000000000000000004000000000000000000000000000000020200000000000000000000004000000000001000000000000000000000002000000000000000000000000000800000000000400000000000000000000000000002000000004000000000000000000000",
      "type": "0x2",
      "transactionHash": "0xa9aed3e9deec22ade27cbc6bc2f9325996696964f0b4c55eaf8a8be41d1cc591",
      "transactionIndex": "0x2",
      "blockHash": "0xd67918365193b82da93b61b55148905129cbb16889ffe1ab90332c57720e5f79",
      "blockNumber": "0x803f030",
      "gasUsed": "0x37bab",
      "effectiveGasPrice": "0x5f5e100",
      "from": "0x24c1fd279b9b2631614d5cd5f9cc55dfec4422c2",
      "to": "0x64842c038db9af44d29d2a27ef50dbba6f7e43bb",
      "contractAddress": null,
      "gasUsedForL1": "0x0",
      "l1BlockNumber": "0x794ee4",
      "timeboosted": false
    }
  ],
  "libraries": [],
  "pending": [],
  "returns": {},
  "timestamp": 1742567652,
  "chain": 421614,
  "commit": "7768dd4"
}