{
  "transactions": [
    {
      "hash": "0x3a7d6bb81a94b81c3a2ef32f497feef1ccb77f7898d4f7aef273bbce3b173992",
      "transactionType": "CALL",
      "contractName": null,
      "contractAddress": "0x64842c038db9af44d29d2a27ef50dbba6f7e43bb",
      "function": "requestRandomness(bytes,uint256)",
      "arguments": [
        "0x9556bff10aac933f",
        "300000"
      ],
      "transaction": {
        "from": "0x24c1fd279b9b2631614d5cd5f9cc55dfec4422c2",
        "to": "0x64842c038db9af44d29d2a27ef50dbba6f7e43bb",
        "gas": "0x4c8ba",
        "value": "0x1",
        "input": "0xc764a699000000000000000000000000000000000000000000000000000000000000004000000000000000000000000000000000000000000000000000000000000493e000000000000000000000000000000000000000000000000000000000000000089556bff10aac933f000000000000000000000000000000000000000000000000",
        "nonce": "0x75",
        "chainId": "0x66eee"
      },
      "additionalContracts": [],
      "isFixedGasLimit": false
    }
  ],
  "receipts": [
    {
      "status": "0x1",
      "cumulativeGasUsed": "0x38f35",
      "logs": [
        {
          "address": "0x598face78a4302f11e3de0bee1894da0b2cb71f8",
          "topics": [
            "0x769f711d20c679153d382254f59892613b58a97cc876b249134ac25c80f9c814",
            "0x000000000000000000000000008635105b348396b6ccd18bb715a9b6db0e0d12",
            "0x000000000000000000000000000000000000000000000000000000000001b580",
            "0x0000000000000000000000009bf90104dc52b645038780f5e4410ec036dd273d"
          ],
          "data": "0x0000000000000000000000000000000000000000000000000000000000000020000000000000000000000000000000000000000000000000000000000000006d03000008da00066eee000000000000000000000000008635105b348396b6ccd18bb715a9b6db0e0d120001b5800000000000000000000000009bf90104dc52b645038780f5e4410ec036dd273d79b5d043de12efd147ae69f3c53c6b2fde51cc48cc8a5c7e03988a5362b6921d00000000000000000000000000000000000000",
          "blockHash": "0xb8f756cee35de953f3852c5b7027ef8943e418d3fc42e812231ebb97cb749274",
          "blockNumber": "0x803bf72",
          "transactionHash": "0x3a7d6bb81a94b81c3a2ef32f497feef1ccb77f7898d4f7aef273bbce3b173992",
          "transactionIndex": "0x1",
          "logIndex": "0x0",
          "removed": false
        },
        {
          "address": "0x598face78a4302f11e3de0bee1894da0b2cb71f8",
          "topics": [
            "0x788dbc1b7152732178210e7f4d9d010ef016f9eafbe66786bd7169f56e0c353a",
            "0x56fce78416e9f1d8418399e44a95de635a11372102dd6b20cd2f1fd0ac29ffb1"
          ],
          "data": "0x",
          "blockHash": "0xb8f756cee35de953f3852c5b7027ef8943e418d3fc42e812231ebb97cb749274",
          "blockNumber": "0x803bf72",
          "transactionHash": "0x3a7d6bb81a94b81c3a2ef32f497feef1ccb77f7898d4f7aef273bbce3b173992",
          "transactionIndex": "0x1",
          "logIndex": "0x1",
          "removed": false
        },
        {
          "address": "0xad34a66bf6db18e858f6b686557075568c6e031c",
          "topics": [
            "0x253a3a04cab70d47c1504809242d9350cd81627b4f1d50753e159cf8cd76ed33"
          ],
          "data": "0x56fce78416e9f1d8418399e44a95de635a11372102dd6b20cd2f1fd0ac29ffb10000000000000000000000000000000000000000000000000000000000000777",
          "blockHash": "0xb8f756cee35de953f3852c5b7027ef8943e418d3fc42e812231ebb97cb749274",
          "blockNumber": "0x803bf72",
          "transactionHash": "0x3a7d6bb81a94b81c3a2ef32f497feef1ccb77f7898d4f7aef273bbce3b173992",
          "transactionIndex": "0x1",
          "logIndex": "0x2",
          "removed": false
        },
        {
          "address": "0x008635105b348396b6ccd18bb715a9b6db0e0d12",
          "topics": [
            "0x24824956716588cf18c3cb557ee25fa952255246eb51235316882371d343c355",
            "0x79b5d043de12efd147ae69f3c53c6b2fde51cc48cc8a5c7e03988a5362b6921d",
            "0x00000000000000000000000064842c038db9af44d29d2a27ef50dbba6f7e43bb"
          ],
          "data": "0x",
          "blockHash": "0xb8f756cee35de953f3852c5b7027ef8943e418d3fc42e812231ebb97cb749274",
          "blockNumber": "0x803bf72",
          "transactionHash": "0x3a7d6bb81a94b81c3a2ef32f497feef1ccb77f7898d4f7aef273bbce3b173992",
          "transactionIndex": "0x1",
          "logIndex": "0x3",
          "removed": false
        }
      ],
      "logsBloom": "0x00008000001000808000000000040000010000000001000000000000002000000000000000050000000020000000000080000000200040000000004000200800000000000000000000000000000004000000080000800000000000000010000000000000000000000040020000000000000001000000000020000008200000000000000000000000000000000000000000100000000000000000000000000004000000000000000000000000000000020200000000000000000000000000000000001000000000000000000000002000000002000000000000000000800000000000400000000000000000000000000002000000004000000000000000000000",
      "type": "0x2",
      "transactionHash": "0x3a7d6bb81a94b81c3a2ef32f497feef1ccb77f7898d4f7aef273bbce3b173992",
      "transactionIndex": "0x1",
      "blockHash": "0xb8f756cee35de953f3852c5b7027ef8943e418d3fc42e812231ebb97cb749274",
      "blockNumber": "0x803bf72",
      "gasUsed": "0x38f35",
      "effectiveGasPrice": "0x5f5e100",
      "from": "0x24c1fd279b9b2631614d5cd5f9cc55dfec4422c2",
      "to": "0x64842c038db9af44d29d2a27ef50dbba6f7e43bb",
      "contractAddress": null,
      "gasUsedForL1": "0x0",
      "l1BlockNumber": "0x794dd6",
      "timeboosted": false
    }
  ],
  "libraries": [],
  "pending": [],
  "returns": {},
  "timestamp": 1742564417,
  "chain": 421614,
  "commit": "7768dd4"
}