{
  "transactions": [
    {
      "hash": "0x7b646d4a2c670345d68d59b19550e4910b7292759e01b5e7a2f145bbc7cb7b96",
      "transactionType": "CALL",
      "contractName": null,
      "contractAddress": "0x63c67422ad4515e4969bbbba0f5e002303a7aff3",
      "function": "requestRandomness(bytes,uint256)",
      "arguments": [
        "0x503e9bc4639d05c4",
        "300000"
      ],
      "transaction": {
        "from": "0x24c1fd279b9b2631614d5cd5f9cc55dfec4422c2",
        "to": "0x63c67422ad4515e4969bbbba0f5e002303a7aff3",
        "gas": "0x4ae7d",
        "value": "0x1",
        "input": "0xc764a699000000000000000000000000000000000000000000000000000000000000004000000000000000000000000000000000000000000000000000000000000493e00000000000000000000000000000000000000000000000000000000000000008503e9bc4639d05c4000000000000000000000000000000000000000000000000",
        "nonce": "0x64",
        "chainId": "0x66eee"
      },
      "additionalContracts": [],
      "isFixedGasLimit": false
    }
  ],
  "receipts": [
    {
      "status": "0x1",
      "cumulativeGasUsed": "0x37b7e",
      "logs": [
        {
          "address": "0x598face78a4302f11e3de0bee1894da0b2cb71f8",
          "topics": [
            "0x769f711d20c679153d382254f59892613b58a97cc876b249134ac25c80f9c814",
            "0x0000000000000000000000009a0766d9730ae0f17e81143c8a632b3dca613cd4",
            "0x000000000000000000000000000000000000000000000000000000000001b580",
            "0x0000000000000000000000009bf90104dc52b645038780f5e4410ec036dd273d"
          ],
          "data": "0x0000000000000000000000000000000000000000000000000000000000000020000000000000000000000000000000000000000000000000000000000000006d03000008ce00066eee0000000000000000000000009a0766d9730ae0f17e81143c8a632b3dca613cd40001b5800000000000000000000000009bf90104dc52b645038780f5e4410ec036dd273d289ae304f92ebe34c1de2709bdaeced52ce4a75f20906f8a5d940fe2c111074100000000000000000000000000000000000000",
          "blockHash": "0x5104c78533d13628f3c903468a5c74fbed5001aed6071536883432df4c553c71",
          "blockNumber": "0x8030519",
          "transactionHash": "0x7b646d4a2c670345d68d59b19550e4910b7292759e01b5e7a2f145bbc7cb7b96",
          "transactionIndex": "0x1",
          "logIndex": "0x0",
          "removed": false
        },
        {
          "address": "0x598face78a4302f11e3de0bee1894da0b2cb71f8",
          "topics": [
            "0x788dbc1b7152732178210e7f4d9d010ef016f9eafbe66786bd7169f56e0c353a",
            "0xf19e7b956847fd7806053c86718b3d7132f91a54c716419b10004fd00778f9c4"
          ],
          "data": "0x",
          "blockHash": "0x5104c78533d13628f3c903468a5c74fbed5001aed6071536883432df4c553c71",
          "blockNumber": "0x8030519",
          "transactionHash": "0x7b646d4a2c670345d68d59b19550e4910b7292759e01b5e7a2f145bbc7cb7b96",
          "transactionIndex": "0x1",
          "logIndex": "0x1",
          "removed": false
        },
        {
          "address": "0xad34a66bf6db18e858f6b686557075568c6e031c",
          "topics": [
            "0x253a3a04cab70d47c1504809242d9350cd81627b4f1d50753e159cf8cd76ed33"
          ],
          "data": "0xf19e7b956847fd7806053c86718b3d7132f91a54c716419b10004fd00778f9c4000000000000000000000000000000000000000000000000000000000000076d",
          "blockHash": "0x5104c78533d13628f3c903468a5c74fbed5001aed6071536883432df4c553c71",
          "blockNumber": "0x8030519",
          "transactionHash": "0x7b646d4a2c670345d68d59b19550e4910b7292759e01b5e7a2f145bbc7cb7b96",
          "transactionIndex": "0x1",
          "logIndex": "0x2",
          "removed": false
        },
        {
          "address": "0x9a0766d9730ae0f17e81143c8a632b3dca613cd4",
          "topics": [
            "0x24824956716588cf18c3cb557ee25fa952255246eb51235316882371d343c355",
            "0x289ae304f92ebe34c1de2709bdaeced52ce4a75f20906f8a5d940fe2c1110741",
            "0x00000000000000000000000063c67422ad4515e4969bbbba0f5e002303a7aff3"
          ],
          "data": "0x",
          "blockHash": "0x5104c78533d13628f3c903468a5c74fbed5001aed6071536883432df4c553c71",
          "blockNumber": "0x8030519",
          "transactionHash": "0x7b646d4a2c670345d68d59b19550e4910b7292759e01b5e7a2f145bbc7cb7b96",
          "transactionIndex": "0x1",
          "logIndex": "0x3",
          "removed": false
        }
      ],
      "logsBloom": "0x00000000001000808000000000040000000000000000000000000000202000000000000000000000000022000000000000400000200040000000004000200800001000000000000000000000000004002000080000000000000000000000000000000000000000000040820000000000000004000008000020000001000000000000000000000000000000000000000000100000000000000000800000000004000000000000000000000000000000020200000000000000000000000000000008001000000200000000100000002000000000000800000000000000000000000000400000000000000000000000000002000000000000008000000000000000",
      "type": "0x2",
      "transactionHash": "0x7b646d4a2c670345d68d59b19550e4910b7292759e01b5e7a2f145bbc7cb7b96",
      "transactionIndex": "0x1",
      "blockHash": "0x5104c78533d13628f3c903468a5c74fbed5001aed6071536883432df4c553c71",
      "blockNumber": "0x8030519",
      "gasUsed": "0x37b7e",
      "effectiveGasPrice": "0x5f5e100",
      "from": "0x24c1fd279b9b2631614d5cd5f9cc55dfec4422c2",
      "to": "0x63c67422ad4515e4969bbbba0f5e002303a7aff3",
      "contractAddress": null,
      "gasUsedForL1": "0x0",
      "l1BlockNumber": "0x7949c5",
      "timeboosted": false
    }
  ],
  "libraries": [],
  "pending": [],
  "returns": {},
  "timestamp": 1742551884,
  "chain": 421614,
  "commit": "7768dd4"
}